:020000040800F2
:1000000000500020BD03000801040008010400089E
:1000100001040008010400080104000800000000B9
:1000200000000000000000000000000001040008C3
:100030000104000800000000010400080104000899
:10004000010400080104000801040008010400087C
:10005000010400080104000801040008010400086C
:10006000010400080104000801040008010400085C
:10007000010400080104000801040008010400084C
:10008000010400080104000801040008010400083C
:10009000010400080104000801040008010400082C
:1000A000010400080104000801040008010400081C
:1000B000010400080104000801040008010400080C
:1000C00001040008010400080104000801040008FC
:1000D00001040008010400080104000801040008EC
:1000E00001040008010400080104000800000000E9
:1000F0000000000000000000000000000000000000
:0C01000000000000000000005FF808F1A3
:10010C000348044B834202D0034B03B1184770479A
:10011C000000002000000020000000000548064BF5
:10012C001B1AD90F01EBA301491002D0034B03B1E9
:10013C00184770470000002000000020000000005D
:10014C0010B5064C237843B9FFF7DAFF044B13B113
:10015C000448AFF300800123237010BD0000002081
:10016C00000000000404000808B5054B1BB105494C
:10017C000548AFF30080BDE80840FFF7CFBF00BFD4
:10018C0000000000040000200404000800B583B047
:10019C000121102000F0FEF84FF40055ADF804508A
:1001AC0010238DF8073003238DF80630044C01A979
:1001BC00204600F095F82946204600F0E9F8FEE7C5
:1001CC000010014082B00023019300932C4A136865
:1001DC0043F4803313602A4B1B6803F40033009301
:1001EC00019B01330193009B1BB9019BB3F5A06FDD
:1001FC00F1D1234B1B6813F4003F06D0012300936D
:10020C00009B012B04D002B0704700230093F7E74A
:10021C001C4B1A6842F010021A601A6822F0030292
:10022C001A601A6842F002021A60A3F580535A68E9
:10023C005A605A685A605A6842F480625A605A6826
:10024C0022F47C125A605A6842F4E8125A601A6816
:10025C0042F080721A600A4B1B6813F0007FFAD0D0
:10026C00074B5A6822F003025A605A6842F00202A5
:10027C005A60034B5B6803F00C03082BF9D1C2E7FF
:10028C00001002400020024008B5FFF79BFF08BD9C
:10029C0008B5104B1A6842F001021A6059680E4AF0
:1002AC000A405A601A6822F0847222F480321A6072
:1002BC001A6822F480221A605A6822F4FE025A60EC
:1002CC004FF41F029A60FFF7DFFF044B4FF0006200
:1002DC009A6008BD001002400000FFF800ED00E03D
:1002EC0030B5CB7803F00F02964613F0100F03D005
:1002FC0091F802E04EEA020E0B78FBB10568002380
:10030C0001E042610133072B17D801229A40B1F862
:10031C0000C032EA0C0CF5D19C004FF00F0C0CFA1B
:10032C0004FC25EA0C050EFA04F42543CC78282CA1
:10033C00E7D0482CE6D10261E4E705600B88FF2B7F
:10034C0025D94568002303E0CC78482C1CD0013318
:10035C00072B1BD803F1080C012202FA0CF2B1F89E
:10036C0000C032EA0C0CF2D19C004FF00F0C0CFACE
:10037C0004FC25EA0C0C0EFA04F444EA0C05CC78C7
:10038C00282CE1D14261DFE70261E0E7456030BD36
:10039C004161704721B1054A9369034393617047EA
:1003AC00024A936923EA00039361704700100240EC
:1003BC00002103E00A4B5B584350043109480A4BB7
:1003CC0042189A42F6D3094A02E0002342F8043B51
:1003DC00074B9A42F9D3FFF75BFFFFF7D7FE704745
:1003EC002404000800000020000000200000002071
:1003FC001C000020FEE70000F8B500BFF8BC08BCEC
:10040C009E467047F8B500BFF8BC08BC9E467047C6
:04041C00750100085E
:040420004D01000882
:04000005080003BD2F
:00000001FF
